{
  "address": "0x3b20892158663e926Fbf1eaD7C47192FBbd22282",
  "abi": [
    {
      "inputs": [
        {
          "internalType": "uint256",
          "name": "_lockTimestamp",
          "type": "uint256"
        },
        {
          "internalType": "address",
          "name": "_dataFeedAddr",
          "type": "address"
        }
      ],
      "stateMutability": "nonpayable",
      "type": "constructor"
    },
    {
      "inputs": [],
      "name": "dataFeed",
      "outputs": [
        {
          "internalType": "contract AggregatorV3Interface",
          "name": "",
          "type": "address"
        }
      ],
      "stateMutability": "view",
      "type": "function"
    },
    {
      "inputs": [],
      "name": "fund",
      "outputs": [],
      "stateMutability": "payable",
      "type": "function"
    },
    {
      "inputs": [
        {
          "internalType": "address",
          "name": "",
          "type": "address"
        }
      ],
      "name": "fundersToAmount",
      "outputs": [
        {
          "internalType": "uint256",
          "name": "",
          "type": "uint256"
        }
      ],
      "stateMutability": "view",
      "type": "function"
    },
    {
      "inputs": [],
      "name": "getChainlinkDataFeedLatestAnswer",
      "outputs": [
        {
          "internalType": "int256",
          "name": "",
          "type": "int256"
        }
      ],
      "stateMutability": "view",
      "type": "function"
    },
    {
      "inputs": [],
      "name": "getFund",
      "outputs": [],
      "stateMutability": "nonpayable",
      "type": "function"
    },
    {
      "inputs": [],
      "name": "getFundSuccess",
      "outputs": [
        {
          "internalType": "bool",
          "name": "",
          "type": "bool"
        }
      ],
      "stateMutability": "view",
      "type": "function"
    },
    {
      "inputs": [],
      "name": "owner",
      "outputs": [
        {
          "internalType": "address",
          "name": "",
          "type": "address"
        }
      ],
      "stateMutability": "view",
      "type": "function"
    },
    {
      "inputs": [],
      "name": "refund",
      "outputs": [],
      "stateMutability": "nonpayable",
      "type": "function"
    },
    {
      "inputs": [
        {
          "internalType": "address",
          "name": "erc20Addr",
          "type": "address"
        }
      ],
      "name": "setERC20Address",
      "outputs": [],
      "stateMutability": "nonpayable",
      "type": "function"
    },
    {
      "inputs": [
        {
          "internalType": "address",
          "name": "funder",
          "type": "address"
        },
        {
          "internalType": "uint256",
          "name": "amount",
          "type": "uint256"
        }
      ],
      "name": "setFunderToAmount",
      "outputs": [],
      "stateMutability": "nonpayable",
      "type": "function"
    },
    {
      "inputs": [
        {
          "internalType": "address",
          "name": "newOwner",
          "type": "address"
        }
      ],
      "name": "transferOwner",
      "outputs": [],
      "stateMutability": "nonpayable",
      "type": "function"
    }
  ],
  "transactionHash": "0xd4a8fff7b3b0e34a690aaa6e2af95588f451369bad7d674c688236fbd0ed3de9",
  "args": [
    180,
    "0x694AA1769357215DE4FAC081bf1f309aDC325306"
  ],
  "numDeployments": 1,
  "solcInputHash": "3d15952d368d018dd5880355d7c4606e",
  "bytecode": "0x6080604052670de0b6b3a7640000600155670de0b6b3a764000060025573694aa1769357215de4fac081bf1f309adc325306600360006101000a81548173ffffffffffffffffffffffffffffffffffffffff021916908373ffffffffffffffffffffffffffffffffffffffff16021790555034801561007d57600080fd5b506040516115d43803806115d4833981810160405281019061009f91906101cf565b80600660006101000a81548173ffffffffffffffffffffffffffffffffffffffff021916908373ffffffffffffffffffffffffffffffffffffffff16021790555033600460006101000a81548173ffffffffffffffffffffffffffffffffffffffff021916908373ffffffffffffffffffffffffffffffffffffffff1602179055504260078190555081600881905550505061020f565b600080fd5b6000819050919050565b61014e8161013b565b811461015957600080fd5b50565b60008151905061016b81610145565b92915050565b600073ffffffffffffffffffffffffffffffffffffffff82169050919050565b600061019c82610171565b9050919050565b6101ac81610191565b81146101b757600080fd5b50565b6000815190506101c9816101a3565b92915050565b600080604083850312156101e6576101e5610136565b5b60006101f48582860161015c565b9250506020610205858286016101ba565b9150509250929050565b6113b68061021e6000396000f3fe60806040526004361061009c5760003560e01c80639e42ff90116100645780639e42ff901461014c5780639f883a0514610177578063b60d4288146101b4578063bea4dfb5146101be578063d39cf006146101e9578063da4658e0146102125761009c565b806341bec0d2146100a15780634fb2e45d146100ca578063590e1ae3146100f35780638da5cb5b1461010a5780638edd6eb614610135575b600080fd5b3480156100ad57600080fd5b506100c860048036038101906100c39190610b7f565b61023d565b005b3480156100d657600080fd5b506100f160048036038101906100ec9190610b7f565b610311565b005b3480156100ff57600080fd5b506101086103e5565b005b34801561011657600080fd5b5061011f610609565b60405161012c9190610bbb565b60405180910390f35b34801561014157600080fd5b5061014a61062f565b005b34801561015857600080fd5b5061016161083a565b60405161016e9190610c35565b60405180910390f35b34801561018357600080fd5b5061019e60048036038101906101999190610b7f565b610860565b6040516101ab9190610c69565b60405180910390f35b6101bc610878565b005b3480156101ca57600080fd5b506101d3610961565b6040516101e09190610c9d565b60405180910390f35b3480156101f557600080fd5b50610210600480360381019061020b9190610ce4565b610a02565b005b34801561021e57600080fd5b50610227610ad9565b6040516102349190610d3f565b60405180910390f35b600460009054906101000a900473ffffffffffffffffffffffffffffffffffffffff1673ffffffffffffffffffffffffffffffffffffffff163373ffffffffffffffffffffffffffffffffffffffff16146102cd576040517f08c379a00000000000000000000000000000000000000000000000000000000081526004016102c490610db7565b60405180910390fd5b80600560006101000a81548173ffffffffffffffffffffffffffffffffffffffff021916908373ffffffffffffffffffffffffffffffffffffffff16021790555050565b600460009054906101000a900473ffffffffffffffffffffffffffffffffffffffff1673ffffffffffffffffffffffffffffffffffffffff163373ffffffffffffffffffffffffffffffffffffffff16146103a1576040517f08c379a000000000000000000000000000000000000000000000000000000000815260040161039890610db7565b60405180910390fd5b80600460006101000a81548173ffffffffffffffffffffffffffffffffffffffff021916908373ffffffffffffffffffffffffffffffffffffffff16021790555050565b6008546007546103f59190610e06565b421015610437576040517f08c379a000000000000000000000000000000000000000000000000000000000815260040161042e90610e86565b60405180910390fd5b60008060003373ffffffffffffffffffffffffffffffffffffffff1673ffffffffffffffffffffffffffffffffffffffff168152602001908152602001600020549050600081116104bd576040517f08c379a00000000000000000000000000000000000000000000000000000000081526004016104b490610ef2565b60405180910390fd5b60006104c847610aec565b9050670de0b6b3a76400008110610514576040517f08c379a000000000000000000000000000000000000000000000000000000000815260040161050b90610f5e565b60405180910390fd5b60003373ffffffffffffffffffffffffffffffffffffffff168360405161053a90610faf565b60006040518083038185875af1925050503d8060008114610577576040519150601f19603f3d011682016040523d82523d6000602084013e61057c565b606091505b50509050806105c0576040517f08c379a00000000000000000000000000000000000000000000000000000000081526004016105b790611010565b60405180910390fd5b60008060003373ffffffffffffffffffffffffffffffffffffffff1673ffffffffffffffffffffffffffffffffffffffff16815260200190815260200160002081905550505050565b600460009054906101000a900473ffffffffffffffffffffffffffffffffffffffff1681565b60085460075461063f9190610e06565b421015610681576040517f08c379a000000000000000000000000000000000000000000000000000000000815260040161067890610e86565b60405180910390fd5b600460009054906101000a900473ffffffffffffffffffffffffffffffffffffffff1673ffffffffffffffffffffffffffffffffffffffff163373ffffffffffffffffffffffffffffffffffffffff1614610711576040517f08c379a000000000000000000000000000000000000000000000000000000000815260040161070890610db7565b60405180910390fd5b6000479050600061072182610aec565b9050670de0b6b3a764000081101561076e576040517f08c379a00000000000000000000000000000000000000000000000000000000081526004016107659061107c565b60405180910390fd5b600460009054906101000a900473ffffffffffffffffffffffffffffffffffffffff1673ffffffffffffffffffffffffffffffffffffffff166108fc839081150290604051600060405180830381858888f193505050501580156107d6573d6000803e3d6000fd5b506001600960006101000a81548160ff02191690831515021790555060008060003373ffffffffffffffffffffffffffffffffffffffff1673ffffffffffffffffffffffffffffffffffffffff168152602001908152602001600020819055505050565b600660009054906101000a900473ffffffffffffffffffffffffffffffffffffffff1681565b60006020528060005260406000206000915090505481565b6008546007546108889190610e06565b42106108c9576040517f08c379a00000000000000000000000000000000000000000000000000000000081526004016108c0906110e8565b60405180910390fd5b60006108d434610aec565b905060025481101561091b576040517f08c379a000000000000000000000000000000000000000000000000000000000815260040161091290611154565b60405180910390fd5b346000803373ffffffffffffffffffffffffffffffffffffffff1673ffffffffffffffffffffffffffffffffffffffff1681526020019081526020016000208190555050565b600080600660009054906101000a900473ffffffffffffffffffffffffffffffffffffffff1673ffffffffffffffffffffffffffffffffffffffff1663feaf968c6040518163ffffffff1660e01b815260040160a060405180830381865afa1580156109d1573d6000803e3d6000fd5b505050506040513d601f19601f820116820180604052508101906109f591906111f7565b5050509150508091505090565b600560009054906101000a900473ffffffffffffffffffffffffffffffffffffffff1673ffffffffffffffffffffffffffffffffffffffff163373ffffffffffffffffffffffffffffffffffffffff1614610a92576040517f08c379a0000000000000000000000000000000000000000000000000000000008152600401610a89906112be565b60405180910390fd5b806000808473ffffffffffffffffffffffffffffffffffffffff1673ffffffffffffffffffffffffffffffffffffffff168152602001908152602001600020819055505050565b600960009054906101000a900460ff1681565b600080610af7610961565b90506305f5e1008184610b0a91906112de565b610b14919061134f565b915050919050565b600080fd5b600073ffffffffffffffffffffffffffffffffffffffff82169050919050565b6000610b4c82610b21565b9050919050565b610b5c81610b41565b8114610b6757600080fd5b50565b600081359050610b7981610b53565b92915050565b600060208284031215610b9557610b94610b1c565b5b6000610ba384828501610b6a565b91505092915050565b610bb581610b41565b82525050565b6000602082019050610bd06000830184610bac565b92915050565b6000819050919050565b6000610bfb610bf6610bf184610b21565b610bd6565b610b21565b9050919050565b6000610c0d82610be0565b9050919050565b6000610c1f82610c02565b9050919050565b610c2f81610c14565b82525050565b6000602082019050610c4a6000830184610c26565b92915050565b6000819050919050565b610c6381610c50565b82525050565b6000602082019050610c7e6000830184610c5a565b92915050565b6000819050919050565b610c9781610c84565b82525050565b6000602082019050610cb26000830184610c8e565b92915050565b610cc181610c50565b8114610ccc57600080fd5b50565b600081359050610cde81610cb8565b92915050565b60008060408385031215610cfb57610cfa610b1c565b5b6000610d0985828601610b6a565b9250506020610d1a85828601610ccf565b9150509250929050565b60008115159050919050565b610d3981610d24565b82525050565b6000602082019050610d546000830184610d30565b92915050565b600082825260208201905092915050565b7f596f7520617265206e6f7420746865206f776e65720000000000000000000000600082015250565b6000610da1601583610d5a565b9150610dac82610d6b565b602082019050919050565b60006020820190508181036000830152610dd081610d94565b9050919050565b7f4e487b7100000000000000000000000000000000000000000000000000000000600052601160045260246000fd5b6000610e1182610c50565b9150610e1c83610c50565b9250828201905080821115610e3457610e33610dd7565b5b92915050565b7f77696e646f77206973206e6f7420636c6f736564000000000000000000000000600082015250565b6000610e70601483610d5a565b9150610e7b82610e3a565b602082019050919050565b60006020820190508181036000830152610e9f81610e63565b9050919050565b7f596f7520617265206e6f742066756e6465720000000000000000000000000000600082015250565b6000610edc601283610d5a565b9150610ee782610ea6565b602082019050919050565b60006020820190508181036000830152610f0b81610ecf565b9050919050565b7f5461726765742069732072656163686564000000000000000000000000000000600082015250565b6000610f48601183610d5a565b9150610f5382610f12565b602082019050919050565b60006020820190508181036000830152610f7781610f3b565b9050919050565b600081905092915050565b50565b6000610f99600083610f7e565b9150610fa482610f89565b600082019050919050565b6000610fba82610f8c565b9150819050919050565b7f6661696c656420746f207472616e736665720000000000000000000000000000600082015250565b6000610ffa601283610d5a565b915061100582610fc4565b602082019050919050565b6000602082019050818103600083015261102981610fed565b9050919050565b7f546172676574206973206e6f7420726561636865640000000000000000000000600082015250565b6000611066601583610d5a565b915061107182611030565b602082019050919050565b6000602082019050818103600083015261109581611059565b9050919050565b7f77696e646f7720697320636c6f73656400000000000000000000000000000000600082015250565b60006110d2601083610d5a565b91506110dd8261109c565b602082019050919050565b60006020820190508181036000830152611101816110c5565b9050919050565b7f596f75206e65656420746f207370656e64206d6f726520455448210000000000600082015250565b600061113e601b83610d5a565b915061114982611108565b602082019050919050565b6000602082019050818103600083015261116d81611131565b9050919050565b600069ffffffffffffffffffff82169050919050565b61119381611174565b811461119e57600080fd5b50565b6000815190506111b08161118a565b92915050565b6111bf81610c84565b81146111ca57600080fd5b50565b6000815190506111dc816111b6565b92915050565b6000815190506111f181610cb8565b92915050565b600080600080600060a0868803121561121357611212610b1c565b5b6000611221888289016111a1565b9550506020611232888289016111cd565b9450506040611243888289016111e2565b9350506060611254888289016111e2565b9250506080611265888289016111a1565b9150509295509295909350565b7f596f752068617665206e6f207065726d697373696f6e00000000000000000000600082015250565b60006112a8601683610d5a565b91506112b382611272565b602082019050919050565b600060208201905081810360008301526112d78161129b565b9050919050565b60006112e982610c50565b91506112f483610c50565b925082820261130281610c50565b9150828204841483151761131957611318610dd7565b5b5092915050565b7f4e487b7100000000000000000000000000000000000000000000000000000000600052601260045260246000fd5b600061135a82610c50565b915061136583610c50565b92508261137557611374611320565b5b82820490509291505056fea264697066735822122006240c1556a73eb9ccb1c00ac502a96c6bc550d10ce587af46284d5f9dbb4f6764736f6c634300081c0033",
  "devdoc": {
    "kind": "dev",
    "methods": {},
    "version": 1
  },
  "userdoc": {
    "kind": "user",
    "methods": {
      "getChainlinkDataFeedLatestAnswer()": {
        "notice": "Returns the latest answer. 这里根据dataField获取 1eth 对应的USD 价格 ETH / USD percision 10 ** 8 X / ETH 10 ** 18"
      }
    },
    "version": 1
  },
  "storageLayout": {
    "storage": [
      {
        "astId": 53,
        "contract": "contracts/FundMe.sol:FundMe",
        "label": "fundersToAmount",
        "offset": 0,
        "slot": "0",
        "type": "t_mapping(t_address,t_uint256)"
      },
      {
        "astId": 60,
        "contract": "contracts/FundMe.sol:FundMe",
        "label": "MIN_ETH_VALUE",
        "offset": 0,
        "slot": "1",
        "type": "t_uint256"
      },
      {
        "astId": 67,
        "contract": "contracts/FundMe.sol:FundMe",
        "label": "MIN_USD_VALUE",
        "offset": 0,
        "slot": "2",
        "type": "t_uint256"
      },
      {
        "astId": 77,
        "contract": "contracts/FundMe.sol:FundMe",
        "label": "SEPOLIA_ETH_TO_USD_TEST_NET",
        "offset": 0,
        "slot": "3",
        "type": "t_address"
      },
      {
        "astId": 79,
        "contract": "contracts/FundMe.sol:FundMe",
        "label": "owner",
        "offset": 0,
        "slot": "4",
        "type": "t_address"
      },
      {
        "astId": 81,
        "contract": "contracts/FundMe.sol:FundMe",
        "label": "erc20",
        "offset": 0,
        "slot": "5",
        "type": "t_address"
      },
      {
        "astId": 84,
        "contract": "contracts/FundMe.sol:FundMe",
        "label": "dataFeed",
        "offset": 0,
        "slot": "6",
        "type": "t_contract(AggregatorV3Interface)45"
      },
      {
        "astId": 86,
        "contract": "contracts/FundMe.sol:FundMe",
        "label": "deployTimestamp",
        "offset": 0,
        "slot": "7",
        "type": "t_uint256"
      },
      {
        "astId": 88,
        "contract": "contracts/FundMe.sol:FundMe",
        "label": "lockTimestamp",
        "offset": 0,
        "slot": "8",
        "type": "t_uint256"
      },
      {
        "astId": 90,
        "contract": "contracts/FundMe.sol:FundMe",
        "label": "getFundSuccess",
        "offset": 0,
        "slot": "9",
        "type": "t_bool"
      }
    ],
    "types": {
      "t_address": {
        "encoding": "inplace",
        "label": "address",
        "numberOfBytes": "20"
      },
      "t_bool": {
        "encoding": "inplace",
        "label": "bool",
        "numberOfBytes": "1"
      },
      "t_contract(AggregatorV3Interface)45": {
        "encoding": "inplace",
        "label": "contract AggregatorV3Interface",
        "numberOfBytes": "20"
      },
      "t_mapping(t_address,t_uint256)": {
        "encoding": "mapping",
        "key": "t_address",
        "label": "mapping(address => uint256)",
        "numberOfBytes": "32",
        "value": "t_uint256"
      },
      "t_uint256": {
        "encoding": "inplace",
        "label": "uint256",
        "numberOfBytes": "32"
      }
    }
  }
}